:020000040802F0
:1000000000000220C98D0208E15E0208E75E0208D6
:10001000ED5E0208F35E0208F95E020800000000CF
:10002000000000000000000000000000FF5E020869
:100030000D5F0208000000001B5F0208295F020834
:10004000198E0208198E0208198E0208198E0208EC
:10005000198E0208198E0208198E0208198E0208DC
:10006000198E0208198E0208198E0208198E0208CC
:10007000198E0208198E0208198E0208198E0208BC
:10008000198E0208198E0208198E0208198E0208AC
:10009000198E0208198E0208198E0208355F0208AF
:1000A000198E0208455F0208198E0208198E02088F
:1000B000198E0208198E0208198E0208198E02087C
:1000C000198E0208198E0208198E0208198E02086C
:1000D000198E0208198E0208198E0208198E02085C
:1000E000595F0208198E0208198E0208198E02083B
:1000F000198E0208198E0208198E0208198E02083C
:10010000198E0208198E0208198E0208198E02082B
:10011000198E0208198E0208198E0208198E02081B
:10012000198E0208198E0208198E0208198E02080B
:10013000198E0208198E0208198E0208198E0208FB
:10014000198E0208198E0208198E0208198E0208EB
:10015000198E0208198E0208198E0208198E0208DB
:10016000198E0208198E0208198E0208198E0208CB
:10017000198E0208198E0208198E0208000000006C
:08018000198E0208198E020815
:1001900010B5054C237833B9044B13B10448AFF3C1
:1001A00000800123237010BDB8D90020000000009A
:1001B00000D5030808B5034B1BB103490348AFF34F
:1001C000008008BD00000000BCD9002000D5030855
:1001D00010F8012B11F8013B012A28BF9A42F7D0F1
:1001E000D01A7047034613F8012B002AFBD1181AC6
:1001F000013870470000000000000000000000000F
:1002000001F0FF01102A2BDB10F0070F08D010F8C7
:10021000013B013A8B422DD010F0070F42B3F6D1CB
:10022000F0B441EA012141EA014122F007047FF0E4
:1002300000070023F0E80256083C85EA010586EA3B
:10024000010685FA47F5A3FA87F586FA47F6A5FA77
:1002500087F68EB9EED1F0BC01F0FF0102F0070283
:1002600032B110F8013B013A83EA010313B1F8D12E
:100270000020704701387047002D06BF354603380F
:10028000073815F0010F07D1013015F4807F02BF48
:10029000013015F4C03F0130F0BC0138704700BF99
:1002A00081F0004102E000BF83F0004330B54FEA27
:1002B00041044FEA430594EA050F08BF90EA020F94
:1002C0001FBF54EA000C55EA020C7FEA645C7FEA27
:1002D000655C00F0E2804FEA5454D4EB5555B8BF4A
:1002E0006D420CDD2C4480EA020281EA030382EABB
:1002F000000083EA010180EA020281EA0303362D4D
:1003000088BF30BD11F0004F4FEA01314FF4801C1F
:100310004CEA113102D0404261EB410113F0004F31
:100320004FEA03334CEA133302D0524263EB4303E8
:1003300094EA050F00F0A780A4F10104D5F1200E86
:100340000DDB02FA0EFC22FA05F2801841F10001E1
:1003500003FA0EF2801843FA05F359410EE0A5F1B5
:1003600020050EF1200E012A03FA0EFC28BF4CF0E6
:10037000020C43FA05F3C01851EBE37101F000459C
:1003800007D54FF0000EDCF1000C7EEB00006EEBA9
:100390000101B1F5801F1BD3B1F5001F0CD3490833
:1003A0005FEA30004FEA3C0C04F101044FEA44528A
:1003B00012F5800F80F09A80BCF1004F08BF5FEA11
:1003C000500C50F1000041EB045141EA050130BDF1
:1003D0005FEA4C0C404141EB0101013C28BFB1F503
:1003E000801FE9D291F0000F04BF01460020B1FA4E
:1003F00081F308BF2033A3F10B03B3F120020CDA21
:100400000C3208DD02F1140CC2F10C0201FA0CF0FE
:1004100021FA02F10CE002F11402D8BFC2F1200C63
:1004200001FA02F120FA0CFCDCBF41EA0C01904019
:10043000E41AA2BF01EB0451294330BD6FEA040462
:100440001F3C1CDA0C340EDC04F11404C4F120024D
:1004500020FA04F001FA02F340EA030021FA04F35F
:1004600045EA030130BDC4F10C04C4F1200220FAB6
:1004700002F001FA04F340EA0300294630BD21FAF4
:1004800004F0294630BD94F0000F83F4801306BFBA
:1004900081F480110134013D4EE77FEA645C18BFAE
:1004A0007FEA655C29D094EA050F08BF90EA020F45
:1004B00005D054EA000C04BF1946104630BD91EA3D
:1004C000030F1EBF0021002030BD5FEA545C05D140
:1004D0004000494128BF41F0004130BD14F580047F
:1004E0003CBF01F5801130BD01F0004545F0FE41F3
:1004F00041F470014FF0000030BD7FEA645C1ABF28
:10050000194610467FEA655C1CBF0B46024650EA5E
:10051000013406BF52EA033591EA030F41F400218A
:1005200030BD00BF90F0000F04BF0021704730B510
:100530004FF4806404F132044FF000054FF00001E5
:1005400050E700BF90F0000F04BF0021704730B5A6
:100550004FF4806404F1320410F0004548BF40427B
:100560004FF000013EE700BF42004FEAE2014FEAD0
:1005700031014FEA02701FBF12F07F4393F07F4FAB
:1005800081F06051704732F07F4208BF704793F0AE
:100590007F4F04BF41F40021704730B54FF46074C1
:1005A00001F0004521F000411CE700BF50EA0102C4
:1005B00008BF704730B54FF000050AE050EA01026D
:1005C00008BF704730B511F0004502D5404261EBDD
:1005D00041014FF4806404F132045FEA915C3FF41E
:1005E000D8AE4FF003025FEADC0C18BF03325FEABB
:1005F000DC0C18BF033202EBDC02C2F1200300FA6C
:1006000003FC20FA02F001FA03FE40EA0E0021FA90
:1006100002F11444BDE600BF70B54FF0FF0C4CF47E
:10062000E06C1CEA11541DBF1CEA135594EA0C0F30
:1006300095EA0C0F00F0DEF82C4481EA030621EA6B
:100640004C5123EA4C5350EA013518BF52EA0335A6
:1006500041F4801143F4801338D0A0FB02CE4FF058
:100660000005E1FB02E506F00042E0FB03E54FF088
:100670000006E1FB03569CF0000F18BF4EF0010E80
:10068000A4F1FF04B6F5007F64F5407404D25FEA7C
:100690004E0E6D4146EB060642EAC62141EA55512F
:1006A0004FEAC52040EA5E504FEACE2EB4F1FD0C71
:1006B00088BFBCF5E06F1ED8BEF1004F08BF5FEAEF
:1006C000500E50F1000041EB045170BD06F00046A1
:1006D00046EA010140EA020081EA0301B4EB5C044E
:1006E000C2BFD4EB0C0541EA045170BD41F4801146
:1006F0004FF0000E013C00F3AB8014F1360FDEBF6B
:10070000002001F0004170BDC4F10004203C35DA46
:100710000C341BDC04F11404C4F1200500FA05F3C9
:1007200020FA04F001FA05F240EA020001F000426A
:1007300021F0004110EBD37021FA04F642EB0601E0
:100740005EEA430E08BF20EAD37070BDC4F10C040A
:10075000C4F1200500FA04F320FA05F001FA04F2CE
:1007600040EA020001F0004110EBD37041F10001BA
:100770005EEA430E08BF20EAD37070BDC4F12005C5
:1007800000FA05F24EEA020E20FA04F301FA05F22D
:1007900043EA020321FA04F001F0004121FA04F2D5
:1007A00020EA020000EBD3705EEA430E08BF20EAA5
:1007B000D37070BD94F0000F0FD101F000464000DF
:1007C00041EB010111F4801F08BF013CF7D041EA61
:1007D000060195F0000F18BF704703F00046520065
:1007E00043EB030313F4801F08BF013DF7D043EA36
:1007F0000603704794EA0C0F0CEA135518BF95EAEC
:100800000C0F0CD050EA410618BF52EA4306D1D172
:1008100081EA030101F000414FF0000070BD50EA91
:10082000410606BF1046194652EA430619D094EA1B
:100830000C0F02D150EA013613D195EA0C0F05D105
:1008400052EA03361CBF104619460AD181EA030159
:1008500001F0004141F0FE4141F470014FF0000011
:1008600070BD41F0FE4141F4780170BD70B54FF0AC
:10087000FF0C4CF4E06C1CEA11541DBF1CEA13552C
:1008800094EA0C0F95EA0C0F00F0A7F8A4EB05040E
:1008900081EA030E52EA03354FEA013100F0888005
:1008A0004FEA03334FF0805545EA131343EA1263CE
:1008B0004FEA022245EA111545EA10654FEA002683
:1008C0000EF000419D4208BF964244F1FD0404F53C
:1008D000407402D25B084FEA3202B61A65EB030598
:1008E0005B084FEA32024FF480104FF4002CB6EB55
:1008F000020E75EB030E22BFB61A754640EA0C00D5
:100900005B084FEA3202B6EB020E75EB030E22BF14
:10091000B61A754640EA5C005B084FEA3202B6EB55
:10092000020E75EB030E22BFB61A754640EA9C0014
:100930005B084FEA3202B6EB020E75EB030E22BFE4
:10094000B61A754640EADC0055EA060E18D04FEAA2
:10095000051545EA16754FEA06164FEAC30343EA42
:1009600052734FEAC2025FEA1C1CC0D111F4801F0F
:100970000BD141EA00014FF000004FF0004CB6E708
:1009800011F4801F04BF01430020B4F1FD0C88BFA7
:10099000BCF5E06F3FF6AFAEB5EB030C04BFB6EBB2
:1009A000020C5FEA500C50F1000041EB045170BDA5
:1009B0000EF0004E4EEA113114EB5C04C2BFD4EBD2
:1009C0000C0541EA045170BD41F480114FF0000E56
:1009D000013C90E645EA060E8DE60CEA135594EAD2
:1009E0000C0F08BF95EA0C0F3FF43BAF94EA0C0FD5
:1009F0000AD150EA01347FF434AF95EA0C0F7FF44A
:100A000025AF104619462CE795EA0C0F06D152EA9D
:100A100003353FF4FDAE1046194622E750EA410681
:100A200018BF52EA43067FF4C5AE50EA41047FF492
:100A30000DAF52EA43057FF4EBAE12E74FF0FF3CF7
:100A400006E000BF4FF0010C02E000BF4FF0010CC8
:100A50004DF804CD4FEA410C7FEA6C5C4FEA430C41
:100A600018BF7FEA6C5C1BD001B050EA410C0CBF90
:100A700052EA430C91EA030F02BF90EA020F0020F2
:100A8000704710F1000F91EA030F58BF994208BF59
:100A900090422CBFD8176FEAE37040F00100704716
:100AA0004FEA410C7FEA6C5C02D150EA013C07D16D
:100AB0004FEA430C7FEA6C5CD6D152EA033CD3D0B8
:100AC0005DF8040B704700BF8446104662468C46B2
:100AD0001946634600E000BF01B5FFF7B7FF0028E5
:100AE00048BF10F1000F01BD4DF808EDFFF7F4FF0E
:100AF0000CBF012000205DF808FB00BF4DF808ED99
:100B0000FFF7EAFF34BF012000205DF808FB00BFBB
:100B10004DF808EDFFF7E0FF94BF012000205DF8DD
:100B200008FB00BF4DF808EDFFF7CEFF94BF012092
:100B300000205DF808FB00BF4DF808EDFFF7C4FF8B
:100B400034BF012000205DF808FB00BF4FEA410CD4
:100B50007FEA6C5C02D150EA013C0AD14FEA430CB7
:100B60007FEA6C5C02D152EA033C02D14FF00000F4
:100B700070474FF0010070474A0011D212F5001281
:100B800011D20DD56FF47873B3EB62520ED44FEAE5
:100B9000C12343F0004343EA505323FA02F0704765
:100BA0004FF00000704750EA013002D14FF0FF30A3
:100BB00070474FF0000070474FEA4102B2F1E04346
:100BC00024BFB3F5001CDCF1FE5C0DD901F0004C34
:100BD0004FEAC0024CEA5070B2F1004F40EB830084
:100BE00008BF20F00100704711F0804F21D113F1B0
:100BF0003872BCBF01F00040704741F480114FEAE9
:100C00005252C2F11802C2F1200C10FA0CF320FA71
:100C100002F018BF40F001004FEAC1234FEAD3238E
:100C200003FA0CFC40EA0C0023FA02F34FEA4303F8
:100C3000CCE77FEA625307D150EA01331EBF4FF081
:100C4000FE4040F44000704701F0004040F0FE409C
:100C500040F40000704700BF53B94AB9002908BFEB
:100C600000281CBF4FF0FF314FF0FF3000F070B98B
:100C7000ADF1080C6DE904CE00F006F8DDF804E0F3
:100C8000DDE9022304B070472DE9F047089E0D46C8
:100C900004460F46002B4AD18A42944665D9B2FADF
:100CA00082F343B102FA03FCC3F120029F4020FA11
:100CB00002F217439C404FEA1C4E1FFA8CF5B7FB1B
:100CC000FEF1220C0EFB117742EA074201FB05F010
:100CD00090420AD91CEB020201F1FF3780F01C811F
:100CE000904240F2198102396244121AA4B2B2FB56
:100CF000FEF00EFB102244EA024400FB05F5A5427B
:100D00000AD91CEB040400F1FF3280F00781A542F0
:100D100040F204816444023840EA0140641B00212F
:100D20001EB1DC400023C6E90043BDE8F0878B42DA
:100D300008D9002E00F0ED800021C6E90005084624
:100D4000BDE8F087B3FA83F1002949D1AB4202D361
:100D5000824200F2F880841A65EB030201201746F4
:100D6000002EE2D0C6E90047DFE702B9FFDEB2FAA3
:100D700082F3002B40F090808A1A4FEA1C471FFA3A
:100D80008CFE0121B2FBF7F507FB1520220C42EA8D
:100D900000420EFB05F0904208D91CEB020205F15F
:100DA000FF3802D2904200F2CB804546121AA4B21C
:100DB000B2FBF7F007FB102244EA02440EFB00FEF0
:100DC000A64508D91CEB040400F1FF3202D2A64567
:100DD00000F2BB801046A4EB0E0440EA05409FE7FA
:100DE000C1F120078B4022FA07FC4CEA030C05FAFC
:100DF00001F420FA07F3FD404FEA1C492343B5FBF9
:100E0000F9F81FFA8CFE09FB18551C0C44EA05443E
:100E100008FB0EF5A54202FA01F200FA01F00BD927
:100E20001CEB040408F1FF3A80F08880A54240F2F0
:100E30008580A8F102086444641B9DB2B4FBF9F3F9
:100E400009FB134445EA044403FB0EFEA64508D9FA
:100E50001CEB040403F1FF356CD2A6456AD9023BB2
:100E6000644443EA0843A3FB0295A4EB0E04AC429E
:100E7000C846AE4656D353D056B1B0EB080264EB29
:100E80000E0404FA07F7CA40CC401743C6E90074C1
:100E900018460021BDE8F087C3F1200102FA03FCE7
:100EA00020FA01F225FA01F19D402A434FEA1C473E
:100EB0001FFA8CFEB1FBF7F007FB1015110C41EA8D
:100EC000054100FB0EF58D4204FA03F408D91CEB32
:100ED000010100F1FF382FD28D422DD90238614433
:100EE000491B92B2B1FBF7F507FB151142EA01422B
:100EF00005FB0EF1914208D91CEB020205F1FF3807
:100F000016D2914214D9023D6244521A45EA004178
:100F100038E73146304608E73946E6E61046FBE654
:100F20004845A9D2B9EB020865EB0C0E013BA3E7DB
:100F30004546EAE72B4694E74046D1E7D0467BE7B3
:100F4000023D624432E708460AE76444023842E759
:100F5000704700BFF0B58DB002AFF8600B46FB7272
:100F60000023FB75002387F827300121F86800F083
:100F70007FFC0346FB7597F82730092B04D9FB7DCE
:100F8000FF2B01D1FF2349E297F82730013387F87F
:100F90002730FB7D982BE8D18C4A7A608C4B1D461C
:100FA000944605F1200E64462E460FCE2060616007
:100FB000A260E36010350CF1100C7545F3D1644666
:100FC0002B4607CB20606160A2601A889B78A281C3
:100FD000A3737B68184602F001F902224FF44071B6
:100FE000F86800F0F7FB0346BB75784A7A60794BE6
:100FF0001C46944604F1300E654626460FCE286006
:101000006960AA60EB6010340CF1100C7445F3D1E8
:1010100063462246106818609188927999809A7187
:101020007B68184602F0DAF8FB7A002B38D046F2DB
:101030002001F86800F01CFC0346FB75FB7D43F0C3
:101040000403FB75FB7D1A4646F22001F86800F0A8
:10105000C1FB0346BB754FF44C71F86800F008FC07
:101060000346FB75FB7D23F00803FB75FB7D1A46E9
:101070004FF44C71F86800F0ADFB0346BB750123DB
:101080003B6209E03B6ADBB203221946F86800F0D4
:1010900074FD3B6A01333B623B6A052BF2DD49E09C
:1010A00046F22001F86800F0E3FB0346FB75FB7D88
:1010B00023F00403FB75FB7D1A4646F22001F86815
:1010C00000F088FB47F22001F86800F0D1FB0346EE
:1010D000FB75FB7D23F00403FB75FB7D1A4647F28D
:1010E0002001F86800F076FB0346BB754FF44C71A5
:1010F000F86800F0BDFB0346FB75FB7D43F0080379
:10110000FB75FB7D1A464FF44C71F86800F062FBEA
:101110000346BB750123FB6109E0FB69DBB20122D9
:101120001946F86800F029FDFB690133FB61FB6992
:10113000052BF2DD21224FF44471F86800F04AFBE0
:101140000346BB754B2240F21331F86800F042FBB6
:101150000346BB7546F20131F86800F089FB03468F
:10116000FB75FB7D43F01003FB75FB7D43F008032B
:10117000FB75FB7D1A4646F20131F86800F02AFB48
:101180000346BB7547F20131F86800F071FB034676
:10119000FB75FB7D43F01003FB75FB7D43F00803FB
:1011A000FB75FB7D1A4647F20131F86800F012FB2F
:1011B0000346BB7501224FF44071F86800F00AFB4A
:1011C0000346BB750123BB6118E100BF90DC002022
:1011D00018D5030848D50308BB69D9B24DF60B539F
:1011E00000936F230122F86800F089FC0346BB7569
:1011F000BB69D9B246F2320300938F230122F8680B
:1012000000F07DFC0346BB75BB69D9B242F28C434A
:1012100000939D230122F86800F071FC0346BB7522
:10122000BB69D9B26023009375230122F86800F0EE
:1012300066FC0346BB75BB69D9B247F2777300936E
:10124000D3230122F86800F05AFC0346BB75BB6942
:10125000D9B243F20803009306231C22F86800F079
:101260004EFC0346BB75BB69D9B242F20103009341
:1012700008231C22F86800F042FC0346BB75BB69DA
:10128000D9B2D023009304231C22F86800F037FC65
:101290000346BB75BB69D9B2002300933C230722E8
:1012A000F86800F02CFC0346BB75BB69D9B246F662
:1012B000FF63009313231C22F86800F020FC034610
:1012C000BB75BB69D9B24EF2FF63009314231C2295
:1012D000F86800F014FC0346BB75BB69D9B246F64A
:1012E000FF63009315231C22F86800F008FC0346F6
:1012F000BB75BB69D9B24EF2FF63009316231C2263
:10130000F86800F0FCFB0346BB75BB69D9B2FF234C
:10131000009317231C22F86800F0F1FB0346BB750D
:10132000BB69D9B244F2FF33009318231C22F8683A
:1013300000F0E5FB0346BB75BB69D9B24CF2FF3345
:10134000009319231C22F86800F0D9FB0346BB75F3
:10135000BB69D9B246F6FF7300931A231C22F868C2
:1013600000F0CDFB0346BB75BB69D9B240F2FF73F9
:1013700000931B231C22F86800F0C1FB0346BB75D9
:10138000BB69D9B240F6FF7300931C231C22F86896
:1013900000F0B5FB0346BB75BB69D9B24EF2FF73D3
:1013A00000931D231C22F86800F0A9FB0346BB75BF
:1013B000BB69D9B24EF6FF7300931E231C22F86856
:1013C00000F09DFB0346BB75BB69D9B24EF6EE63D8
:1013D000009320231C22F86800F091FB0346BB75A4
:1013E000BB69D9B20123009300230222F86800F000
:1013F00086FB0346BB75BB690133BB61BB69052B2B
:101400007FF7EAAE6421F86800F0FEF80346BB758A
:10141000F86800F007F80346BB75BB7D18462C370B
:10142000BD46F0BD80B584B000AF78600123BB60DD
:1014300010E0BB689BB21B039BB203F59B739BB28E
:1014400005221946786800F0C5F90346FB73BB68AE
:101450000133BB60BB68052BEBDDFB7B1846103707
:10146000BD4680BDF0B58BB000AF78601B217868B9
:1014700000F0FEF9034687F8233097F82330002B5D
:1014800000F0B18006237B62A9E097F823207B6AF5
:1014900042FA03F303F00103FB61FB69012B40F007
:1014A0009B807B6A002BC0F297807B6A042B00F341
:1014B00093807B6A01339BB21B039BB203F2371309
:1014C0009BB21946786800F0D3F90346FB76FB7EA1
:1014D00003F00103002B3BD0454A7B6A13441B7881
:1014E000012B79D07B6A5A1C07F114034149184635
:1014F00019F04AFF3E4A7B6A134401221A703E4E9D
:101500003E4B35461C460FCC28606960AA60EB60F4
:1015100020682861A388AB823346184601F05EFE3E
:1015200007F11403194634481AF079F903461846AE
:1015300001F054FE304D324B2C4607CB20606160E9
:10154000A2601B88A3812B46184601F047FE43E0AA
:10155000FB7E9B08DBB203F00103002B3CD0244A46
:101560007B6A13441B78002B36D07B6A5A1C07F128
:101570000C032049184619F007FF1D4A7B6A1344E3
:1015800000221A701C4E1D4B35461C460FCC28609D
:101590006960AA60EB6020682861A388AB8233464B
:1015A000184601F01BFE07F10C03194612481AF009
:1015B00036F90346184601F011FE0F4E114B354621
:1015C0001C460FCC28606960AA60EB6023782B74FE
:1015D0003346184601F002FE7B6A013B7B627B6A60
:1015E000002BBFF652AF024B18462C37BD46F0BD5C
:1015F000D4D9002080D5030890DC002084D50308CE
:101600009CD50308ACD5030880B586B000AF7860E0
:101610000B46FB704FF4C641786800F029F9034689
:10162000FB73FB7B43F07803FB73FB7B1A464FF4A1
:10163000C641786800F0CEF80346FB7546F20131EA
:10164000786800F015F90346FB73FB7B43F0480311
:10165000FB73FB7B1A4646F20131786800F0BAF85A
:101660004FF4E641786800F003F90346FB73FB7B17
:1016700023F01003FB73FB7B1A464FF4E6417868B6
:1016800000F0A8F80346FB7547F20131786800F0D6
:10169000EFF80346FB73FB7B43F04903FB73FB7BD3
:1016A0001A4647F20131786800F094F80346FB755A
:1016B00001233B6131E03B695A1E13469B001344F2
:1016C0005B001344194A134419491846FEF780FD7C
:1016D0000346002B06D13B69DBB21946786800F05F
:1016E00052F817E03B695A1E13469B0013445B00F7
:1016F00013440E4A13440F491846FEF769FD03468A
:10170000002B07D13B69DBB21946786800F014F86A
:101710000346FB753B6901333B613B69052BCADD21
:10172000FB7D18461837BD4680BD00BF1CDB00207E
:10173000C0D50308CCD5030880B584B000AF78606D
:101740000B46FB70FB789BB21B039BB203F58073C7
:101750009BB201221946786800F03CF80346FB73FF
:10176000FB789BB21B039BB203F201139BB20022D6
:101770001946786800F02EF80346FB73FB7B184689
:101780001037BD4680BD80B584B000AF78600B4691
:10179000FB70FB789BB21B039BB203F580739BB27B
:1017A00021221946786800F015F80346FB73FB7890
:1017B0009BB21B039BB203F201139BB2002219469A
:1017C000786800F007F80346FB73FB7B1846103778
:1017D000BD4680BD80B586B000AF78600B467B808B
:1017E00013467B700023FB604FF080437B617B8856
:1017F0005B011A461C4B13407A6913437B617B697A
:10180000DBB2FB737B691B0ADBB2BB737B691B0C0E
:10181000DBB27B737B691B0EDBB23B7300221021B2
:10182000124809F079FB07F10C016423042278685F
:101830000BF0E9F80346FB74791C642301227868F5
:101840000BF0E1F80346FB7401221021074809F070
:1018500063FBFB7C002B01D0012300E00023184632
:101860001837BD4680BD00BFE0FF1F0000000240EA
:1018700080B586B000AF78600B467B800023FB60AC
:101880004FF0C0437B617B885B011A461C4B1340C1
:101890007A6913437B617B69DBB2FB737B691B0A4B
:1018A000DBB2BB737B691B0CDBB27B737B691B0EEA
:1018B000DBB23B7300221021124809F02DFB07F127
:1018C0000C016423042278680BF09DF80346FB7436
:1018D00007F108016423012278680BF0D7F9034669
:1018E000FB7401221021074809F016FBFB7C002B3A
:1018F00001D0FF2300E03B7A18461837BD4680BD73
:10190000E0FF1F000000024080B586B000AF7860A5
:101910000B467B8013463B800023FB6000233B810A
:101920004FF080437B617B885B011A46204B13405C
:101930007A6913437B617B69DBB2FB737B691B0AAA
:10194000DBB2BB737B691B0CDBB27B737B691B0E49
:10195000DBB23B737B69DBB27B727B691B0ADBB258
:101960003B7200221021134809F0D6FA07F10C014E
:101970006423042278680BF046F80346FB7407F1F1
:1019800008016423022278680BF03DF80346FB74DB
:1019900001221021074809F0BFFAFB7C002B01D07F
:1019A000012300E0002318461837BD4680BD00BF64
:1019B000E0FF1F000000024080B588B000AF7860F3
:1019C0000B467B8000233B610023FB834FF0C04329
:1019D000BB617B885B011A46214B1340BA691343F4
:1019E000BB61BB69DBB2FB74BB691B0ADBB2BB74B6
:1019F000BB691B0CDBB27B74BB691B0EDBB23B7497
:101A000000221021174809F087FA07F1100164231A
:101A1000042278680AF0F7FF0346FB7507F10C0112
:101A20006423022278680BF031F90346FB7501222A
:101A300010210C4809F070FAFB7D002B01D0FF2328
:101A400009E03B7B9BB21B02FB837B7B9AB2FB8B47
:101A50001343FB83FB8B18462037BD4680BD00BF78
:101A6000E0FF1F000000024080B584B000AF786046
:101A7000084611461A460346FB700B46BB701346D8
:101A80003B80FB789BB2DB029AB2BB789BB21344DB
:101A90009BB280339BB25B00FB813A88FB8919467D
:101AA0007868FFF731FF03467B737B7B184610375E
:101AB000BD4680BD80B584B000AF78600B46FB703A
:101AC0001346BB70FB789BB2DB029AB2BB789BB229
:101AD00013449BB280339BB25B00FB81FB891946A8
:101AE0007868FFF769FF0346BB81BB89FF2B01D1F3
:101AF000FF2300E0BB8918461037BD4680BD80B586
:101B000084B000AF7860084611461A460346FB7061
:101B10000B46BB7013463B80BB789BB203F01F03A0
:101B20009BB2F9780D227868FFF79EFF0346FB739E
:101B30003B88F9780E227868FFF796FF0346FB731F
:101B4000BB781BB203F01F031BB243F480431BB2EC
:101B50009BB2F9780D227868FFF786FF0346FB7386
:101B60003B8BF9780E227868FFF77EFF0346FB7304
:101B7000FB7B18461037BD4680BD80B584B000AFF2
:101B800078600B46FB701346BB70FB78002B5DD072
:101B9000FB78052B5AD8FB789BB21B039BB203F64C
:101BA00004339BB219467868FFF762FE0346FB7365
:101BB000BB78052B20D0052B2BDC032B02D0042B6C
:101BC0000DD026E0FB7B23F00403FB73FB7B43F08B
:101BD0000203FB73FB7B43F00103FB7326E0FB7BFB
:101BE00023F00403FB73FB7B23F00203FB73FB7BFB
:101BF00023F00103FB7319E0FB7B43F00403FB7349
:101C0000FB7B43F00203FB73FB7B23F00103FB73BD
:101C10000CE0FB7B23F00403FB73FB7B23F002034C
:101C2000FB73FB7B43F00103FB7300BFFB789BB2AC
:101C30001B039BB203F604339BB2FA7B1946786808
:101C4000FFF7C8FD0346BB73BB7B00E002231846C9
:101C50001037BD4680BD80B584B000AF78600B46BC
:101C6000FB70FB78002B5BD0FB78052B58D8FB78FA
:101C70009BB21B039BB203F604339BB219467868F0
:101C8000FFF7F6FD0346BB73BB7B03F00403002B99
:101C90000CD1BB7B03F00203002B07D1BB7B03F00D
:101CA0000103002B02D00123FB7338E0BB7B03F060
:101CB0000403002B0CD1BB7B03F00203002B07D0E5
:101CC000BB7B03F00103002B02D00323FB7326E050
:101CD000BB7B03F00403002B0CD1BB7B03F002039E
:101CE000002B07D1BB7B03F00103002B02D104239F
:101CF000FB7314E0BB7B03F00403002B0CD0BB7B15
:101D000003F00203002B07D0BB7B03F00103002B81
:101D100002D10523FB7302E00023FB7302E001E024
:101D20000123FB73FB7B18461037BD4680BD80B591
:101D300084B000AF78600B46FB70FB78002B1CD0A2
:101D4000FB78052B19D8FB78012219467868FFF734
:101D5000B1FE0346BB81FB78012219467868FFF784
:101D6000A9FE0346BB81BB899B1003F00103002B36
:101D700014BF01230023FB7301E00023FB73FB7BF3
:101D800018461037BD4680BD80B584B000AF78607E
:101D90000B46FB70FB78002B22D0FB78052B1FD85D
:101DA000FB781F2219467868FFF784FE03467B8183
:101DB0007B8903F04003002B40D17B8903F0200393
:101DC000002B02D0204BFB6038E07B8903F010032E
:101DD000002B02D01D4BFB6030E00023FB602DE0A8
:101DE000FB78062B28D146F201317868FFF740FDD9
:101DF00003467B817B89DBB203F003037B727B7A32
:101E0000002B07D17B8903F04003002B02D1104B3C
:101E1000FB6013E04FF4C6417868FFF729FD0346E5
:101E20007B817B8903F01003002B02D0064BFB6003
:101E300004E0064BFB6001E00023FB60FB681846F2
:101E40001037BD4680BD00BF00E1F50580969800C3
:101E500000CA9A3B80B584B000AF7860084611464E
:101E60001A460346FB700B46BB7013467B70FB782B
:101E7000002B36D0FB78062B33D8FB789BB21B03A4
:101E80009BB203F603039BB219467868FFF7F0FC98
:101E90000346FB73BB78002B04D0FB7B43F00403A9
:101EA000FB7303E0FB7B23F00403FB73FB7B23F05A
:101EB0000303FB737B78022B03D1FB7B43F001030D
:101EC000FB73FB789BB21B039BB203F603039BB22D
:101ED000FA7B19460548FFF77DFC0346BB73BB7BC5
:101EE00000E0022318461037BD4680BD30DA0020DE
:101EF00080B586B000AFF8607B600B46FB7213467E
:101F0000BB72FB7A002B00F03983FB7A062B00F2C0
:101F10003583BB7A0F2B00F23183FB7A9BB21B0314
:101F20009BB203F5C06399B27B681B781A46F868C8
:101F3000FFF750FC0346BB750023FB757B68DB781D
:101F4000032B10D0032B13DC012B02D0022B05D066
:101F50000EE0FB7D43F01003FB750EE0FB7D43F0CC
:101F60002003FB7509E0FB7D43F03003FB7504E0C3
:101F7000FB7D23F03003FB7500BF7B681B79032BCF
:101F800010D0032B13DC012B02D0022B05D00EE066
:101F9000FB7D43F00403FB750EE0FB7D43F008037B
:101FA000FB7509E0FB7D43F00C03FB7504E0FB7D52
:101FB00023F00C03FB7500BF7B685B79002B03D01B
:101FC000FB7D43F00203FB757B689B79002B03D0FC
:101FD000FB7D43F00103FB75FB7A9BB21B039BB2B5
:101FE00003F201639BB2FA7D1946F868FFF7F2FB32
:101FF0000346BB757B68DB78012B7DD1FB7A9BB2F6
:102000001B039BB203F2026399B27B68DB791A4629
:10201000F868FFF7DFFB0346BB75FB7A9BB21B0337
:102020009BB203F2036399B27B681B7A1A46F86885
:10203000FFF7D0FB0346BB75FB7A9BB21B039BB239
:1020400003F2046399B27B685B7A1A46F868FFF77B
:10205000C1FB0346BB75FB7A9BB21B039BB203F229
:10206000056399B27B689B7A1A46F868FFF7B2FB62
:102070000346BB75FB7A9BB21B039BB203F206635C
:1020800099B27B68DB7A1A46F868FFF7A3FB034630
:10209000BB75FB7A9BB21B039BB203F2076399B239
:1020A0007B681B7B1A46F868FFF794FB0346BB75F9
:1020B0007B681B79012B00F08F81FB7A9BB21B039D
:1020C0009BB203F5C16399B27B685B7B1A46F868E3
:1020D000FFF780FB0346BB75FB7A9BB21B039BB2E9
:1020E00003F2096399B27B689B7B1A46F868FFF795
:1020F00071FB0346BB756FE17B68DB78022B7DD1FA
:10210000FB7A9BB21B039BB203F2026399B27B681A
:102110001B7D1A46F868FFF75DFB0346BB75FB7A2B
:102120009BB21B039BB203F2036399B27B685B7D96
:102130001A46F868FFF74EFB0346BB75FB7A9BB265
:102140001B039BB203F2046399B27B689B7D1A4622
:10215000F868FFF73FFB0346BB75FB7A9BB21B0396
:102160009BB203F2056399B27B68DB7D1A46F8687F
:10217000FFF730FB0346BB757B681B79012B40F0F2
:102180002B81FB7A9BB21B039BB203F2066399B2CD
:102190007B681B7E1A46F868FFF71CFB0346BB757D
:1021A000FB7A9BB21B039BB203F2076399B27B6875
:1021B0005B7E1A46F868FFF70DFB0346BB75FB7A9A
:1021C0009BB21B039BB203F5C16399B27B689B7EF4
:1021D0001A46F868FFF7FEFA0346BB75FB7A9BB216
:1021E0001B039BB203F2096399B27B68DB7E1A463C
:1021F000F868FFF7EFFA0346BB75EDE07B68DB7824
:10220000032B40F0E9807B681B79012B03D07B68AE
:102210001B79022B3CD1FB7A9BB21B039BB203F2CE
:10222000026399B27B681B7F1A46F868FFF7D2FAFF
:102230000346BB75FB7A9BB21B039BB203F203639D
:1022400099B27B685B7F1A46F868FFF7C3FA0346CA
:10225000BB75FB7A9BB21B039BB203F2046399B27A
:102260007B689B7F1A46F868FFF7B4FA0346BB7594
:10227000FB7A9BB21B039BB203F2056399B27B68A6
:10228000DB7F1A46F868FFF7A5FA0346BB7543E003
:102290007B681B79032B3FD1FB7A9BB21B039BB25C
:1022A00003F2026399B27B6893F820301A46F8680B
:1022B000FFF790FA0346BB75FB7A9BB21B039BB2F8
:1022C00003F2036399B27B6893F821301A46F868E9
:1022D000FFF780FA0346BB75FB7A9BB21B039BB2E8
:1022E00003F2046399B27B6893F822301A46F868C7
:1022F000FFF770FA0346BB75FB7A9BB21B039BB2D8
:1023000003F2056399B27B6893F823301A46F868A4
:10231000FFF760FA0346BB757B6893F824309B0097
:10232000DBB203F00C03FB757B6893F825305BB2DE
:1023300023F001035AB2FB7DDB09DBB25BB213432E
:102340005BB2FB75FB7A9BB21B039BB203F2066385
:102350009BB2FA7D1946F868FFF73CFA0346BB7555
:102360007B6893F825305B00FB757B6893F826301B
:10237000002B03D0FB7D43F00103FB75FB7A9BB27E
:102380001B039BB203F207639BB2FA7D1946F86800
:10239000FFF720FA0346BB75FB7A9BB21B039BB287
:1023A00003F5C16399B27B6893F827301A46F86841
:1023B000FFF710FA0346BB75FB7A9BB21B039BB277
:1023C00003F2096399B27B6893F828301A46F868DB
:1023D000FFF700FA0346BB757B6893F829309B0131
:1023E000FB757B6893F82A30DB005BB203F038039F
:1023F0005AB297F9173013435BB2FB757B6893F8B9
:102400002B30002B03D0FB7D43F00403FB757B686E
:1024100093F82C305B105BB203F003035AB297F9C8
:10242000173013435BB2FB75FB7A9BB21B039BB265
:1024300003F20A639BB2FA7D1946F868FFF7CAF9FE
:102440000346BB757B6893F82C30DB01FB757B681A
:1024500093F82D305B015BB203F060035AB297F939
:10246000173013435BB2FB75FB7A9BB21B039BB225
:1024700003F20B639BB2FA7D1946F868FFF7AAF9DD
:102480000346BB75FB7A9BB21B039BB203F20D6341
:1024900099B27B6893F82E301A46F868FFF79AF9DC
:1024A0000346BB75FB7A9BB21B039BB203F20F631F
:1024B00099B27B685B781A46F868FFF78BF9034698
:1024C000BB75FB7A9BB21B039BB203F20E6399B2FE
:1024D0007B689B781A46F868FFF77CF90346BB7562
:1024E000FB7A9BB21B039BB203F5C2639BB2FF2234
:1024F0001946F868FFF76EF90346BB75FB7A9BB285
:102500001B039BB203F211639BB2F7221946F868D2
:10251000FFF760F90346BB750023FB75FA7DBB7AB4
:102520001343FB75FB7D43F01003FB75FB7A9BB2F5
:102530001B039BB203F212639BB2FA7D1946F86843
:10254000FFF748F90346BB750023FB750FE0FB7AE4
:102550009BB21B039BB203F212639BB21946F8684D
:10256000FFF786F90346FB75012006F029FEFB7D87
:1025700003F02003002BEAD1BB7D00E002231846C4
:102580001837BD4680BD000080B588B000AFF86048
:102590000B467A60FB72FB7A002B41D0FB7A062B4C
:1025A0003ED8224A07F1100392E803001860043372
:1025B00019800023BB77FB7A9BB21B039BB203F607
:1025C00007239BB21946F868FFF752F90346FB77D9
:1025D000FB7FFF2B02D1FF23BB7701E00023BB77FA
:1025E0000023BB6117E07A68BB6913441B781A4665
:1025F000BB6902FA03F35AB207F11001BB690B443D
:102600001978FB7F0B40DBB25BB213435BB2FB7705
:10261000BB690133BB61BB69052BE4DDBB7F00E017
:10262000022318462037BD4680BD00BFD4D503081D
:1026300080B400AFBFF34F8F00BF064BDB6803F4DD
:10264000E0620449044B1343CB60BFF34F8F00BFDC
:1026500000BFFDE700ED00E00400FA05F0B585B02D
:1026600000AF0346FB806E4E6E4B34461D460FCDC9
:102670000FC495E80F0007C4238002341B0C23709D
:102680003346184600F0AAFDFB88B3F5805F7FD182
:10269000634E654B34461D460FCD0FC495E80700C9
:1026A00003C422803346184600F098FD5F4B1B7927
:1026B00003F00103DBB2002B00F0AD805C4B012284
:1026C0001A705A4A137943F00203137101215748D3
:1026D00005F052FA03467B737B7B013B554AD35C82
:1026E000002B43D07B7B002B40D07B7B013B524AAD
:1026F000D25C797B01234D4806F018F80346FB7342
:10270000FB7B002B07D1797B01230122474805F091
:10271000C3FD0346FB73FB7B002B7BD14748FEF7D1
:10272000A1FE0346464A1360454B1A687B7B013B7A
:1027300013441B78002B08D07B7B052219463F48A9
:10274000FFF71BFA0346FB7364E03D4B1A687B7B83
:10275000013B13441B78002B5CD17B7B0122194683
:102760003648FFF70AFA0346FB7353E07B7B013BD5
:10277000304AD35C002B4ED17B7B002B4BD0797B36
:1027800001230022294805F087FD0346FB7342E040
:10279000FB88B3F5007F3ED1214E2A4B34461D46BF
:1027A0000FCD0FC495E8070003C4228033461846B6
:1027B00000F014FD1E4B1B7883F00103DBB2002BED
:1027C00029D01E48FEF74EFE03461D4A1360012322
:1027D000BB731BE01A4B1A68BB7B013B13441B788D
:1027E000002B08D0BB7B052219461448FFF7C5F91A
:1027F0000346FB7307E0BB7B012219460F48FFF736
:10280000BCF90346FB73BB7B0133BB73BB7B052B5E
:10281000E0D900E000BF00BF1437BD46F0BD00BFE7
:1028200090DC0020DCD50308FCD5030868DC002020
:102830008BDC002018DE002010DE002030DA0020C3
:1028400018DB002018D6030880B582B000AF78608E
:102850007B68074A934207D10121064806F0F6F843
:1028600003461A46044B1A7000BF0837BD4680BDA8
:1028700088DA002068DC002088DC0020F8B500AF92
:1028800006F02CFC00F076F900F090FA0BF0ACFCAE
:1028900001224FF400519D4808F03EFB00F05CFA25
:1028A00000F000FA00F0D0F900F032FA984E994B9F
:1028B00034461D460FCD0FC42B682360334618469F
:1028C00000F08CFC01221021934808F025FB002227
:1028D0004FF48071914808F01FFB00224FF4006113
:1028E0008D4808F019FB0A2006F06AFC01224FF41B
:1028F00080718A4808F010FB01224FF4006186487D
:1029000008F00AFB824E864B34461D460FCD0FC49D
:1029100095E80F0084E80F003346184600F05EFC8F
:1029200000F026FB03F050F9794E7E4B34461D46ED
:102930000FCD0FC495E8070003C422800234130CA6
:1029400023703346184600F049FC01224FF4004141
:102950006E4808F0E1FA00217348FEF7FBFA0346DF
:10296000002B16D16A4E714B34461D460FCD0FC455
:102970000FCD0FC495E80F0007C4237033461846E7
:1029800000F02CFC01224FF48041604808F0C4FAAA
:1029900018E05F4E664B34461D460FCD0FC40FCD79
:1029A0000FC495E80F0007C4238002341B0C23706A
:1029B0003346184600F012FC01224FF48051534870
:1029C00008F0AAFA02225B495B4803F0ADFB03461C
:1029D000002B33D10121584805F07CF803461A46F4
:1029E000564B1A700221544805F074F803461A46F3
:1029F000524B1A700121504804F0F9FE03461A4662
:102A00004E4B1A7002214C4804F0F1FE03461A4660
:102A10004A4B1A703E4E4A4B34461D460FCD0FC4EA
:102A20000FCD0FC495E80F0084E80F003346184619
:102A300000F0D4FB43480AF083FD0FE0344E424BD4
:102A400034461D460FCD0FC40FCD0FC40FCD0FC49C
:102A50002B6823703346184600F0C0FB3B4B1B78B5
:102A6000002B02D0394B00221A7039480BF020FE9F
:102A700015F076FD374B1B78002B01D0FFF7D8FD02
:102A8000354B1B7883F00103DBB2002B1FD0324B98
:102A900001221A700A220021304818F097FD2F4BAE
:102AA0002F4A106818609188927999809A712D4800
:102AB00000F0B0FB03461A46204B1A702A492B48F7
:102AC000FDF786FB0346002B01D1FFF7B1FD284B34
:102AD0001B78002BC2D0264B197801230022164800
:102AE00005F0DAFB03461A46144B1A70204B1B788C
:102AF00001221946104806F013F903461A460F4BF7
:102B00001A701B4B00221A70A8E700BF000C02408D
:102B100090DC002034D60308000002400008024088
:102B200048D6030868D6030830DA002084D60308A4
:102B3000B4D60308DCD9002068DC00208CDC00203F
:102B4000E4D6030888DA002014D703088BDC0020C1
:102B500070DE002089DC00208ADC002046DC0020BA
:102B600048D703081CDB002050D703085ADC00209C
:102B700088DC002080B594B000AF07F1200330223C
:102B80000021184618F022FD07F10C0300221A60FC
:102B90005A609A60DA601A610023BB60284B1B6C94
:102BA000274A43F080531364254B1B6C03F080537A
:102BB000BB60BB6800237B60224B1B68214A43F447
:102BC000804313601F4B1B6803F480437B607B686A
:102BD00001233B624FF480337B620223BB634FF4DB
:102BE0008003FB6304233B64A8237B640223BB6450
:102BF0000423FB6407F12003184609F0E3F90346B8
:102C0000002B01D000F000FB0F23FB6002233B618F
:102C100000237B614FF4A053BB614FF4A053FB61D1
:102C200007F10C030521184609F044FC0346002B6C
:102C300001D000F0E9FA00BF5037BD4680BD00BFAB
:102C4000003802400070004080B500AF124B134ABC
:102C50001A60114B124A5A600F4B00229A600E4BB9
:102C60000022DA600C4B4FF480421A610A4B0022BA
:102C70005A61094B00229A61074B0022DA61064B28
:102C800000221A62044808F079F90346002B01D0AB
:102C900000F0BAFA00BF80BDDCD90020005400402B
:102CA000A086010080B500AF174B184A1A60164B7A
:102CB0004FF482725A60144B00229A60124B002229
:102CC000DA60114B00221A610F4B00225A610E4B41
:102CD0004FF400729A610C4B1022DA610A4B002209
:102CE0001A62094B00225A62074B00229A62064B75
:102CF0000A22DA62044809F0FDFD0346002B01D0E8
:102D000000F082FA00BF80BD30DA0020003C0040B5
:102D100080B500AF0E4B0F4A1A600D4B4EF65F2286
:102D20005A600B4B00229A60094B4FF6FF72DA6033
:102D3000074B00221A61064B00229A6104480AF0F0
:102D4000AFFB0346002B01D000F05EFA00BF80BD50
:102D500088DA00200044014080B500AF114B124AD0
:102D60001A60104B4FF4E1325A600E4B00229A6009
:102D70000C4B0022DA600B4B00221A61094B0C222B
:102D80005A61084B00229A61064B0022DA6105481D
:102D90000AF01EFE0346002B01D000F035FA00BFFA
:102DA00080BD00BFD0DA00200044004080B58AB06A
:102DB00000AF07F1140300221A605A609A60DA60CB
:102DC0001A6100233B61664B1B6B654A43F080032D
:102DD0001363634B1B6B03F080033B613B69002370
:102DE000FB605F4B1B6B5E4A43F0040313635C4B59
:102DF0001B6B03F00403FB60FB680023BB60584BB4
:102E00001B6B574A43F001031363554B1B6B03F0D5
:102E10000103BB60BB6800237B60514B1B6B504AB6
:102E200043F0020313634E4B1B6B03F002037B6002
:102E30007B6800233B604A4B1B6B494A43F0080305
:102E40001363474B1B6B03F008033B603B68002296
:102E50004FF40161434808F05FF800224FF47041DD
:102E6000414808F059F800224FF4A0713F4808F09B
:102E700053F84FF401637B610123BB610023FB61C5
:102E800000233B6207F114031946364807F0A8FEF9
:102E90004FF460637B610023BB610023FB6107F19A
:102EA00014031946304807F09BFE4FF470437B61D2
:102EB0000123BB610023FB6100233B6207F1140384
:102EC0001946294807F08CFE4FF4A0737B6101235B
:102ED000BB610023FB6100233B6207F11403194629
:102EE000224807F07DFE4FF400737B614FF404131A
:102EF000BB610023FB6107F1140319461B4807F06F
:102F00006FFE4FF4C0637B610023BB610023FB6154
:102F100007F114031946134807F062FE4FF480537B
:102F20007B614FF40413BB610023FB6107F11403C1
:102F300019460C4807F054FE00220121172006F024
:102F40003EFA172006F057FA00220021282006F04A
:102F500036FA282006F04FFA00BF2837BD4680BD5C
:102F60000038024000000240000C0240000802400D
:102F7000F0B5D7B000AF002387F857313B1D184696
:102F800000F0A2F93B1D03F5907381491846FDF747
:102F90001FF90346002B55D13B1D03F59A737D495C
:102FA0001846FDF715F90346002B2CD03B1D03F501
:102FB0009A730A220021184618F008FB3B1D03F5FE
:102FC0009A73744A92E8030018600433198002333C
:102FD0000A0C1A7007F5AC73A3F5AA73D3F848313D
:102FE000C22B06D007F5AC73A3F5AA73C222C3F8AF
:102FF00048213B1D184600F00DF90346002B02D076
:10300000012387F85731644A07F5AC73A3F5AA7317
:10301000104619464FF4A6731A4618F008FC5F4E86
:103020005F4B34461D460FCD0FC40FCD0FC495E83E
:10303000030084E803003346184600F0CFF897F801
:103040005731A0E00023C7F850314BE0D7F85021AA
:1030500013469B0013445B0013444F4A13445149E9
:103060001A460B4603CB106051601B781372D7F8D9
:10307000502113469B0013445B0013443033464AEF
:103080001344073348491A460B4603CB106051607E
:1030900019889B7811819372D7F8502113469B00B1
:1030A00013445B00134468333B4A134406333F4ADE
:1030B0001188927819809A70D7F8502113469B0096
:1030C00013445B001344A033334A13440533384997
:1030D0001A460B4603CB10605160D7F850310133CC
:1030E000C7F85031D7F85031042BAFDD3022002122
:1030F000304818F06BFA304B304A92E80300186001
:10310000043319802E4B2D4A1068186092889A80DB
:103110002C4B1F4A92E803001860043319802A4B95
:103120002A4A106818609188927999809A71284B80
:10313000184A92E8030018600433198002330A0C1D
:103140001A70244B124A1068186092889A80124BA9
:10315000C222C3F84821104800F05CF8034687F803
:1031600057310E4E1C4B34461D460FCD0FC40FCDAC
:103170000FC495E80F0084E80F003346184600F0AE
:103180002DF897F85731184607F5AE77BD46F0BDD4
:1031900058D7030860D703081CDB002090DC002010
:1031A00068D7030890D703089CD70308A8D703085B
:1031B000ACD70308F8DB002028DC0020B4D70308D4
:1031C00032DC00203CDC002046DC002048D703082D
:1031D00050DC00205ADC0020BCD7030880B582B048
:1031E00000AF78607868FCF7FDFF03469AB24FF0B5
:1031F000FF33796803480AF03BFC00BF0837BD463F
:1032000080BD00BFD0DA002080B400AF72B600BF2E
:10321000FEE70000F0B585B000AF78600B2000F04D
:1032200063F80346002B01D0012345E007F054FA70
:103230007B68BB600023FB6038E0FB6803F1007330
:1032400003F560339B001946FB689B00BA68134482
:103250001B6800221C46154622462B46022007F01A
:10326000E7F90346002B1ED0154A3A60154B1C4661
:10327000944604F1300E654626460FCE28606960FC
:10328000AA60EB6010340CF1100C7445F3D1624667
:1032900023461B8813803B681846FFF79FFF07F003
:1032A0003DFA012308E0FB680133FB60FB68522B09
:1032B000C3D907F033FA002318461437BD46F0BDD2
:1032C00090DC0020ECD7030880B582B000AF7860B6
:1032D0004FF4A6720349786818F0A9FA00BF0837BE
:1032E000BD4680BD00000E08F0B589B000AF786023
:1032F00007F0F2F90023FB600223FB617B687B612E
:103300000123BB610023BB6007F1080207F10C0336
:103310001146184607F042FB0346002B22D0154AFF
:103320003A60154B1C46944604F1200E654626462D
:103330000FCE28606960AA60EB6010340CF1100CAD
:103340007445F3D16546234607CB28606960AA60BF
:103350001B782B733B681846FFF740FF07F0DEF938
:10336000012302E007F0DAF9002318462437BD46AE
:10337000F0BD00BF90DC002020D80308F0B587B076
:1033800000AFF860B9607A6007F0A6F900237B61AE
:103390003AE0BA687B6913441B683B613B690022D1
:1033A0001C46154622462B46F968022007F040F9D4
:1033B0000346002B22D01A4A3A601A4B1C46944608
:1033C00004F1200E654626460FCE28606960AA608B
:1033D000EB6010340CF1100C7445F3D165462346B4
:1033E00007CB28606960AA601B88AB813B681846E0
:1033F000FFF7F4FE07F092F901230CE0FB680433B9
:10340000FB607B6904337B617A697B689A42C0D335
:1034100007F084F9002318461C37BD46F0BD00BFF5
:1034200090DC002050D80308F0B587B000AFF860FA
:10343000B9600420FFF758FF0346002B01D0012399
:1034400049E007F049F9FB683B6100237B613AE002
:103450007B6903F1007303F580439B0019467B6988
:103460009B003A6913441B6800221C4615462246FD
:103470002B46022007F0DCF80346002B20D0184A28
:103480007A60184B1C46944604F1300E6546264679
:103490000FCE28606960AA60EB6010340CF1100C4C
:1034A0007445F3D1634622461188927819809A7048
:1034B0007B681846FFF792FE07F030F901230AE017
:1034C0007B6901337B61BB689A087B699A42BFD8EC
:1034D00007F024F9002318461C37BD46F0BD00BF95
:1034E00090DC002080D8030880B582B000AF7860FF
:1034F00039603A680349786818F099F900BF0837CD
:10350000BD4680BD00000108B0B586B000AFF860D0
:10351000B9607A60FB687B612BE07868FCF762FE3B
:1035200002467B699C18B868FCF75CFE02467B6922
:103530009D18B868FCF756FE02467B69134418468E
:10354000FCF750FE034601331A462946204618F080
:1035500023F87868FCF746FE03461A4679687869CE
:1035600018F05BF87868FCF73DFE02467B6913446F
:103570007B61B968786918F0C8F878617B69002BBD
:10358000CBD100BF00BF1837BD46B0BD80B5BCB0C1
:1035900000AF07F1AC0337220021184618F016F8E7
:1035A00007F1740337220021184618F00FF807F1CD
:1035B0003C0337220021184618F008F83B1D37223B
:1035C0000021184618F002F80023C7F8E83082E01E
:1035D000D7F8E82013469B001344DB00504A1344FD
:1035E0005049184618F032F8C7F8E400002387F86D
:1035F000EF3067E097F8EF30002B1ED107F1740130
:10360000D7F8E82013469B0013445B0013440B4497
:10361000D7F8E410184618F002F907F17401D7F84A
:10362000E82013469B0013445B0013440B443E4ABE
:103630003E491846FFF768FF39E097F8EF30012B55
:103640000FD107F1AC01D7F8E82013469B001344D3
:103650005B0013440B44D7F8E410184618F0DFF869
:1036600025E097F8EF30022B0FD107F13C01D7F896
:10367000E82013469B0013445B0013440B44D7F827
:10368000E410184618F0CBF811E097F8EF30032B50
:103690000DD1391DD7F8E82013469B0013445B0079
:1036A00013440B44D7F8E410184618F0B8F897F80C
:1036B000EF30013387F8EF301A49002017F0C6FFCA
:1036C000C7F8E40097F8EF30032B93D9D7F8E83028
:1036D0000133C7F8E830D7F8E830042B7FF778AF2C
:1036E00007F1AC03184600F023F8034687F8E330EF
:1036F00007F17403184600F0D7F8034687F8E33063
:103700003A1D07F13C031146184600F02DF9034617
:1037100087F8E33097F8E3301846F037BD4680BDB0
:1037200020DD002054D9030858D903085CD90308C8
:1037300080B584B000AF78600023BB609DE0BA68BC
:1037400013469B0013445B0013447A6813444F49AB
:103750001846FCF73DFD0346002B0BD1BB68DBB2DE
:103760000133DBB2052219464948FEF706FA034643
:10377000FB736AE0BA6813469B0013445B00134472
:103780007A68134443491846FCF722FD0346002B90
:103790000BD1BB68DBB20133DBB2042219463C48D3
:1037A000FEF7EBF90346FB734FE0BA6813469B0044
:1037B00013445B0013447A68134437491846FCF7F6
:1037C00007FD0346002B0BD1BB68DBB20133DBB234
:1037D000032219462E48FEF7D0F90346FB7334E066
:1037E000BA6813469B0013445B0013447A68134481
:1037F0002A491846FCF7ECFC0346002B0BD1BB68AA
:10380000DBB20133DBB2022219462148FEF7B5F9DB
:103810000346FB7319E0BA6813469B0013445B0030
:1038200013447A6813441E491846FCF7D1FC03463A
:10383000002B0AD1BB68DBB20133DBB2012219468F
:103840001348FEF79AF90346FB73BA6813469B00C8
:1038500013445B0013443033124A1344D81DBA6832
:1038600013469B0013445B0013447A6813441946C3
:1038700017F0D5FFBB680133BB60BB68042B7FF733
:103880005EAFFB7B18461037BD4680BD60D903088C
:1038900030DA00206CD9030878D9030884D90308EA
:1038A00090D903081CDB002080B584B000AF78609D
:1038B0000023BB6048E0BA6813469B0013445B00DA
:1038C00013447A68134424491846FCF781FC0346E4
:1038D000002B0AD1BB68DBB20133DBB219461F48AB
:1038E000FDF72AFF0346FB7318E0BA6813469B00F6
:1038F00013445B0013447A68134419491846FCF7D3
:1039000067FC0346002B09D1BB68DBB20133DBB295
:1039100019461248FDF737FF0346FB73BA68134692
:103920009B0013445B0013440E4A9818BA68134670
:103930009B0013445B0013447A681344194617F044
:103940006EFFBB680133BB60BB68042BB3DDFB7B40
:1039500018461037BD4680BD98D9030830DA0020DC
:10396000A0D903081CDB002080B58CB000AF7860C4
:103970003960002387F82E304A4BBB600023BB62BE
:103980007FE0BA6A13469B0013445B0013447A68D5
:10399000134445491846FCF71BFC0346002B0FD186
:1039A000424ABB6A13441B78062B27D83F4ABB6A9E
:1039B00013441B78002B21D0012387F82E301DE003
:1039C000BA6A13469B0013445B0013447A6813449D
:1039D00037491846FCF7FCFB0346002B0ED1334A4F
:1039E000BB6A13441B78062B08D9304ABB6A1344C0
:1039F0001B780E2B02D8012387F82E3097F82E3033
:103A0000002B3BD0BA6A13469B0013445B0013445F
:103A10003A68134427491846FCF7DAFB0346002BA3
:103A20000DD1BB6ADBB20133D9B207F10800012323
:103A3000012204F031FC034687F82F301BE0BA6AFC
:103A400013469B0013445B0013443A6813441A491D
:103A50001846FCF7BDFB0346002B0CD1BB6ADBB25A
:103A60000133D9B207F108000123002204F014FC4D
:103A7000034687F82F30002387F82E30BB6A0133C6
:103A8000BB62BB6A042B7FF77CAF97F82F30002B0B
:103A900002D097F82F3000E0002318463037BD469B
:103AA00080BD00BFDCD90020ACD9030810DE0020A7
:103AB000B4D90308BCD90308C4D9030880B584B0BD
:103AC00000AF78607B68DBB219461248FEF7C3F896
:103AD0000346FB73FB7B013B042B15D801A252F874
:103AE00023F000BFF93A0208093B0208FD3A020838
:103AF000013B0208053B0208074B06E0074B04E0C8
:103B0000074B02E0074B00E0074B18461037BD4655
:103B100080BD00BF30DA002090D9030878D90308AF
:103B20006CD9030860D90308CCD9030880B584B0E8
:103B300000AF78607B68DBB219460B48FEF724F9CA
:103B4000F860FB68094A934204D0FB68084A934234
:103B500002D003E0074B02E0074B00E0074B18469A
:103B60001037BD4680BD00BF30DA00208096980037
:103B700000E1F50598D90308A0D90308D4D90308B2
:103B800080B483B000AF78607B68013B1F4AD35C90
:103B9000013B0C2B32D801A252F823F0D13B020892
:103BA000D53B0208D93B0208DD3B0208FD3B020879
:103BB000E13B0208FD3B0208E53B0208E93B020845
:103BC000ED3B0208F13B0208F53B0208F93B020815
:103BD0000F4B14E00F4B12E00F4B10E00F4B0EE0B9
:103BE0000F4B0CE00F4B0AE00F4B08E00F4B06E0C9
:103BF0000F4B04E00F4B02E00F4B00E00F4B184659
:103C00000C37BD465DF8047B704700BF10DE002016
:103C1000DCD90308E4D90308ECD90308F4D9030874
:103C2000FCD9030804DA03080CDA030814DA0308E1
:103C30001CDA030824DA030830DA03083CDA030844
:103C400080B584B000AFF860B9607A60FB68132B70
:103C500000F2768101A252F823F000BFAD3C0208C9
:103C6000CB3C0208E93C0208133D0208313D020842
:103C70004F3D02086D3D0208973D0208B53D020820
:103C8000D33D0208F13D02081B3E0208393E0208FE
:103C9000573E0208753E02089F3E0208BD3E0208DC
:103CA000DB3E0208F93E0208233F02080120FFF72D
:103CB0003DFF03461A46A549B86817F065FBB8688A
:103CC000FCF790FA03469BB23BE10120FFF7F6FEBA
:103CD00003461A469D49B86817F056FBB868FCF7CA
:103CE00081FA03469BB22CE101219948FEF71FF8A7
:103CF0000346002B01D0974B00E0974B1A4693499F
:103D0000B86817F041FBB868FCF76CFA03469BB241
:103D100017E10120FFF734FF03461A468B49B868C4
:103D200017F032FBB868FCF75DFA03469BB208E176
:103D30000220FFF7FBFE03461A468449B86817F0D5
:103D400023FBB868FCF74EFA03469BB2F9E0022069
:103D5000FFF7B4FE03461A467C49B86817F014FB17
:103D6000B868FCF73FFA03469BB2EAE002217848C4
:103D7000FDF7DDFF0346002B01D0764B00E0764BCC
:103D80001A467249B86817F0FFFAB868FCF72AFAC1
:103D900003469BB2D5E00220FFF7F2FE03461A4627
:103DA0006A49B86817F0F0FAB868FCF71BFA0346DE
:103DB0009BB2C6E00320FFF7B9FE03461A466349EB
:103DC000B86817F0E1FAB868FCF70CFA03469BB242
:103DD000B7E00320FFF772FE03461A465B49B86856
:103DE00017F0D2FAB868FCF7FDF903469BB2A8E0D9
:103DF00003215748FDF79BFF0346002B01D0554B8D
:103E000000E0554B1A465149B86817F0BDFAB8683A
:103E1000FCF7E8F903469BB293E00320FFF7B0FEFE
:103E200003461A464949B86817F0AEFAB868FCF775
:103E3000D9F903469BB284E00420FFF777FE0346DE
:103E40001A464249B86817F09FFAB868FCF7CAF9F1
:103E500003469BB275E00420FFF730FE03461A4686
:103E60003A49B86817F090FAB868FCF7BBF903460E
:103E70009BB266E004213648FDF759FF0346002B4C
:103E800001D0344B00E0344B1A463049B86817F083
:103E90007BFAB868FCF7A6F903469BB251E0042010
:103EA000FFF76EFE03461A462849B86817F06CFA09
:103EB000B868FCF797F903469BB242E00520FFF78C
:103EC00035FE03461A462149B86817F05DFAB8680E
:103ED000FCF788F903469BB233E00520FFF7EEFDBF
:103EE00003461A461949B86817F04EFAB868FCF745
:103EF00079F903469BB224E005211548FDF717FF29
:103F00000346002B01D0134B00E0134B1A460F4918
:103F1000B86817F039FAB868FCF764F903469BB241
:103F20000FE00520FFF72CFE03461A460749B86844
:103F300017F02AFAB868FCF755F903469BB200E07F
:103F4000002318461037BD4680BD00BF40DA030885
:103F500030DA002044DA030848DA0308F0B589B003
:103F600000AF78613961FA60BB607B69002B3ED19C
:103F70000023FB6137E0FB699B00FA6813441B6870
:103F80003C491846FCF724F90346002B0ED10A22BF
:103F90000021394817F01AFBFB699B00BA681344EB
:103FA0001B681946344817F03AFC19E0FB699B007E
:103FB000FA6813441B6831491846FCF709F90346AF
:103FC000002B0DD10A2200212D4817F0FFFAFB69C2
:103FD0009B00BA6813441B681946294817F01FFC58
:103FE000FB690133FB61FA693B699A42C3DB2549EE
:103FF0002148FCF7EDF80346002B23D12249204845
:10400000FCF7E6F80346002B1CD1204A7A60204BCF
:104010001C46944604F1200E654626460FCE2860C5
:104020006960AA60EB6010340CF1100C7445F3D198
:1040300063462246106818607B681846FFF7CEF882
:10404000144B12E0114E144B34461D460FCD206028
:104050006160A260E3600FCD20616161A261E361F4
:1040600033461846FFF7BAF80C4B18462437BD46BE
:10407000F0BD00BF50DA030808DD00205CDA030859
:1040800014DD002028DC002032DC002090DC002041
:1040900068DA03088CDA0308A4DA0308C4DA030830
:1040A000F0B589B000AF78613961FA60BB60002378
:1040B000FB767B69012B40F0C280C8220021624858
:1040C00017F084FA0023FB618DE0FB699B00FA681E
:1040D00013441B685D491846FCF77AF80346002B29
:1040E0000FD1FA6913469B001344DB00564A981817
:1040F000FB699B00BA6813441B68194617F08FFBD5
:104100006EE0FB699B00FA6813441B68504918462F
:10411000FCF75EF80346002B0FD1FA6913469B00AB
:104120001344DB00484A9818FB699B00BA681344A3
:104130001B68194617F073FB52E0FB699B00FA6895
:1041400013441B6843491846FCF742F80346002B0A
:104150000FD1FA6913469B001344DB003A4A9818C2
:10416000FB699B00BA6813441B68194617F057FB9C
:1041700036E0FB699B00FA6813441B683649184611
:10418000FCF726F80346002B0FD1FA6913469B0073
:104190001344DB002C4A9818FB699B00BA6813444F
:1041A0001B68194617F03BFB1AE0FB699B00FA6895
:1041B00013441B6829491846FCF70AF80346002BEC
:1041C0000ED1FA6913469B001344DB001E4A98186F
:1041D000FB699B00BA6813441B68194617F01FFB64
:1041E000FB690133FB61FA693B699A42FFF66DAFE7
:1041F000FFF7CCF90346FB76FB7E002B01D0184B72
:104200001EE01848FFF706F8174A7A60174B1C465D
:10421000944604F1200E654626460FCE286069605C
:10422000AA60EB6010340CF1100C7445F3D16346B6
:104230002246106818607B681846FEF7CFFF0C4BCB
:1042400018462437BD46F0BD20DD0020D0DA030833
:10425000D8DA0308E0DA0308E8DA0308F0DA03083A
:10426000F8DA03081CDB002090DC002004DB0308E4
:104270008CDA0308F0B58BB000AF78613961FA6071
:10428000BB60002387F827307B69022B3FD1314880
:10429000FDF7E8F8F86100233B6235E02E4A3B6AFF
:1042A00013441A783B6AF9690B441B789A421FD071
:1042B000012387F827303B6AFA6913441B78002BE7
:1042C0000BD03B6ADBB20133DBB205221946214831
:1042D000FDF753FC0346FB760AE03B6ADBB2013391
:1042E000DBB2012219461B48FDF747FC0346FB766B
:1042F0003B6AFA6913441978174A3B6A13440A4621
:104300001A703B6A01333B623B6A042BC6DD97F8A7
:104310002730002B18D0114A7A60114B1C46944666
:1043200004F1300E654626460FCE28606960AA600B
:10433000EB6010340CF1100C7445F3D17B68184617
:10434000FEF74CFF074B00E0074B18462C37BD46E5
:10435000F0BD00BF30DA0020E8DD002090DC002056
:1043600028DB03088CDA0308C4DA030880B586B0BA
:1043700000AFF860B9607A603B60FB68032B2AD11C
:1043800000237B6123E07B699B007A6813441B68F0
:1043900013491846FBF71CFF0346002B14D17B6919
:1043A0009B003A6813441B6819460E4800F050FD04
:1043B0000346FB74FB7C022B01D10B4B0CE0FB7C16
:1043C000012B01D8094B07E07B6901337B617A69D6
:1043D000BB689A42D7DB054B18461837BD4680BDEF
:1043E00058DB030850DC002068DB0308F8DA030818
:1043F000F0B587B000AFF860B9607A603B60FB68E9
:10440000042B42D100237B613BE07B699B007A68EF
:1044100013441B681F491846FBF7DAFE0346002BBE
:104420002CD17B699B003A6813441B681A491846D3
:10443000FBF7CEFE0346002B20D1184B01221A7049
:10444000174E184B35461C460FCC28606960AA6091
:10445000EB602068286123792B7533461846FEF7F8
:10446000BDFE0F48104A03461188927819809A7051
:1044700003461846FEF7B2FE0C4B07E07B6901339A
:104480007B617A69BB689A42BFDB094B18461C37CF
:10449000BD46F0BD78DB030880DB030889DC002023
:1044A00090DC002084DB03089CDB030868DB030846
:1044B000F8DA0308F0B5A3B000AF78613961FA60AB
:1044C0007B8107F1680320220021184617F07EF84F
:1044D00007F14C0319220021184617F077F807F16D
:1044E0002C0320220021184617F070F807F1200352
:1044F0000B220021184617F069F807F16802202303
:104500009649F86800F034FC07F14C0219239449ED
:10451000F86800F02DFC07F168039249184617F07F
:10452000F4F80346002B00F04B8107F14C038E4951
:104530001846FBF74DFE0346002B40F0048107F1BF
:1045400020020B238949F86800F012FC07F12003D0
:1045500087491846FBF73CFE0346002B40F0DC8001
:1045600007F12C0220238349F86800F001FC07F1D1
:104570002C037F491846FBF72BFE0346002B0AD17C
:10458000B7F8A8307C4A1946D7F8A40016F0C8FE40
:104590006FF00F03C7E107F12C037849184617F0B5
:1045A000B4F80346002B61D0754B01221A7007F155
:1045B0001C0304220021184617F008F897F845302C
:1045C0003B7797F846307B7797F84730BB7707F112
:1045D0001C03184616F086FC0346DAB2694B1A70C3
:1045E000684B1B78802B06D90920FEF77DFE0A2038
:1045F000FEF77AFE02E00920FEF776FE6248634A83
:1046000003461188927819809A7003461846FEF77F
:10461000E5FD5D4E5E4B35461C460FCC286069605B
:10462000AA60EB6007CC28616961AA61334618462D
:10463000FEF7D4FD544E574B34461D460FCD206037
:104640006160A260E3600FCD20616161A261E361FE
:1046500033461846FEF7C2FDB7F8A8304E4A194651
:10466000D7F8A40016F05CFE00235CE107F12C03F0
:104670004A49184617F049F80346002B63D0404BCF
:1046800003221A70464B1A783E4B1B789A421BD174
:10469000444B454A1068186012791A71434A444BDA
:1046A00003CB106051601B781372364B1B781A468F
:1046B000404BC3F848213F48FEF7ACFD314B002288
:1046C0001A70374B00221A702F4E3B4B35461C4652
:1046D0000FCC28606960AA60EB6007CC2861696133
:1046E000AA612388AB8333461846FEF777FD264838
:1046F000264A03461188927819809A700346184614
:10470000FEF76CFDB7F8A830234A1946D7F8A40085
:1047100016F006FE002306E1194B02221A7007F17B
:1047200020030A220021184616F01CFD0346234AE6
:104730001360B7F8A830184A1946D7F8A40016F045
:10474000EFFD0023EFE0B7F8A830134A1946D7F879
:10475000A40016F0E5FD0023E5E000BFA0DB0308A0
:10476000ACDB0308BCDB0308C8DB0308E4DB03089D
:10477000F0DB0308FCDB0308F8DA030804DC0308B9
:10478000EDDD0020EEDD002090DC00209CDB030846
:1047900020DC03083CDC030868DB03085CDC03085E
:1047A000EFDD00205ADC002078DC030846DC002026
:1047B00080DC03081CDB00208CDC0308F0DD00201B
:1047C00007F168035A49184616F09FFF0346002B6D
:1047D00064D007F14C035749184616F096FF03467C
:1047E000002B00F097805448544A03461188927871
:1047F00019809A7003461846FEF7F0FC4E4A7A601C
:104800004F4B1C46944604F1200E654626460FCEBB
:1048100028606960AA60EB6010340CF1100C7445DC
:10482000F3D16346224612781A707B681846FEF769
:10483000D5FC4148414A03461188927819809A7004
:1048400003461846FEF7CAFC3E4B01221A7007F1D8
:104850002C0220233C49F86800F08AFA07F118037B
:1048600002220021184616F0B1FE97F82C303B7654
:1048700097F82D307B7607F11803184616F032FBB7
:104880000346DAB2314B1A70B7F8A830304A1946ED
:10489000D7F8A40016F044FD002344E007F16803B4
:1048A0002C49184616F031FF0346002B32D007F191
:1048B0004C032949184616F028FF0346002B29D03F
:1048C0001D481E4A03461188927819809A70034643
:1048D0001846FEF783FC184E204B34461D460FCD7C
:1048E00020606160A260E3600FCD20616161A26120
:1048F000E36133461846FEF771FC194B01221A702A
:10490000B7F8A830174A1946D7F8A40016F008FDE2
:10491000002308E0B7F8A830134A1946D7F8A400D6
:1049200016F0FEFC002318468C37BD46F0BD00BFD4
:10493000ACDC0308B8DC030890DC00209CDB030837
:10494000CCDC0308F4DD0020F0DC0308F6DD0020F9
:10495000FCDC030808DD030814DD030820DD030880
:10496000F5DD002040DD0308F8DA03082DE9F04FFB
:1049700091B000AFF861B961B24B1B78022B6AD1DC
:104980006B461D46BB691C892346013BFB62A3B2F3
:1049900000223B617A614FF000024FF00003D7E93B
:1049A00004894946CB00414643EA51734146CA0057
:1049B000A3B20022BB60FA604FF000024FF0000388
:1049C000D7E902894946CB00414643EA5173414643
:1049D000CA0023460733DB08DB00ADEB030D6B4653
:1049E0000033BB6223461A460021B86A16F0EEFD7A
:1049F000BB695968BB691B891A46B86A16F017FF6C
:104A00007C62914B1B7803F5003303F520739B0206
:104A10003B628D4B1B780133DAB28B4B1A70796A8B
:104A2000B86A00F0DBF90246884B1B689A4209D14C
:104A3000B8690DF0A7F97A6AB96A386AFEF79EFC80
:104A4000002306E0B8690DF09DF97E4B00221A7034
:104A50000023AD4637E17E4B1B78002B00F08780AA
:104A60006B469846BB6919890B46013B7B638BB249
:104A700000223B607A604FF000024FF00003D7E95C
:104A800000452846C300204643EA50732046C20032
:104A90008BB200229A4693464FF000024FF000037B
:104AA0004FEACB0343EA5A734FEACA020B46073375
:104AB000DB08DB00ADEB030D6B4600333B630B46BD
:104AC0001A460021386B16F081FDBB695968BB6935
:104AD0001B891A46386B16F0AAFE386B00F018FADC
:104AE0000346002B26D05B485B4A03461188927828
:104AF00019809A7003461846FEF770FB554A3A61D2
:104B0000564B1C46944604F1300E654626460FCEA1
:104B100028606960AA60EB6010340CF1100C7445D9
:104B2000F3D163462246106818603B691846FEF7C9
:104B300055FB1AE0474A3A61494B1C46944604F13A
:104B4000200E654626460FCE28606960AA60EB609D
:104B500010340CF1100C7445F3D1634622461068F2
:104B600018603B691846FEF739FBC546A7E03D4B88
:104B70001B78002B00F0A3806B469A46BB6919890D
:104B80000B46013BFB638BB20022984691464FF0E7
:104B900000024FF000034FEAC90343EA58734FEA9B
:104BA000C8028BB200221C4615464FF000024FF09F
:104BB0000003EB0043EA5473E2000B460733DB08C3
:104BC000DB00ADEB030D6B460033BB630B461A46AF
:104BD0000021B86B16F0FAFCBB695968BB691B89E8
:104BE0001A46B86B16F023FEB86B00F0F1FE0346D0
:104BF000002B3BD01748184A034611889278198039
:104C00009A7003461846FEF7E9FA124A3A61164BC3
:104C10001C46944604F1300E654626460FCE2860A9
:104C20006960AA60EB6010340CF1100C7445F3D18C
:104C300063462246106818603B691846FEF7CEFAB4
:104C40003CE000BFEDDD0020EFDD0020F0DD0020C6
:104C5000F4DD002090DC00209CDB03084CDD030821
:104C600080DD0308F5DD0020A4DD03081848194A9B
:104C700003461188927819809A7003461846FEF709
:104C8000ADFA134A3A61144B1C46944604F1200EC7
:104C9000654626460FCE28606960AA60EB60103436
:104CA0000CF1100C7445F3D16346224611889278BA
:104CB00019809A703B691846FEF790FAD546B86994
:104CC0000DF060F8002318464437BD46BDE8F08F6C
:104CD00090DC00209CDB0308D8DD030880B584B09D
:104CE00000AFF860B9601346FB801A4B1B78002BAD
:104CF0000AD0184B1B78032B06D8FB88164A194696
:104D0000B86816F00DFB21E0144B1B78002B09D07E
:104D1000124B00221A70FB88114A1946B86816F027
:104D2000FFFA13E00F4B1B78002B09D00D4B00222C
:104D30001A70FB880C4A1946B86816F0F1FA05E0BB
:104D4000FB880A4A1946B86816F0EAFA00BF10371D
:104D5000BD4680BDEDDD002068DB0308F4DD0020EA
:104D6000FCDC0308F5DD002040DD0308F8DA030869
:104D700080B586B000AFF860B9607A603B60B96812
:104D8000F86816F0C2FC78617B69002B19D0B8680E
:104D9000FBF728FA02467B6913447B6102E07B69DA
:104DA00001337B617B691B78202BF8D07B691B78F2
:104DB0003A2BF4D07B69074A3968786816F0B0FA64
:104DC00004E0054A3968786816F0AAFA00BF183777
:104DD000BD4680BD40DA0308F0DB030880B487B02D
:104DE00000AF786039604FF0FF337B6100233B6197
:104DF0001FE07A683B6913441B781A467B6953406D
:104E00007B610023FB600EE07B695B087A6902F03E
:104E10000102002A01D00D4A00E0002253407B61CC
:104E2000FB680133FB60FB68072BEDDD3B69013359
:104E30003B613A693B689A42DBD37B69DB431846A6
:104E40001C37BD465DF8047B704700BF2083B8ED7A
:104E500080B588B000AF786039607B681B78762BAE
:104E600002D17B6801337B603B681B78762B02D1D3
:104E70003B6801333B6007F10C031A46234978680D
:104E800016F040FCF86107F108031A461F4938681C
:104E900016F038FCB86123E0F86916F023F8786161
:104EA000B86916F01FF838617A693B699A4201DAED
:104EB000022326E07A693B699A4201DD012320E062
:104EC00007F10C031A461149002016F01BFCF8618B
:104ED00007F108031A460D49002016F013FCB861CB
:104EE000FB69002B02D0BB69002BD5D1FB69002BDD
:104EF00001D0012305E0BB69002B01D0022300E0B3
:104F0000002318462037BD4680BD00BFFCDD0308E6
:104F1000B0B5ADF5965D86B000AF07F53673A3F575
:104F200035731860002307F5965202F10F021370D3
:104F3000002307F5965202F10E021370002307F5C5
:104F4000965202F10D021370262307F5965202F1D4
:104F50000302137007F5965202F1030207F5367348
:104F6000A3F535731146186816F070FB07F59653D4
:104F700003F11403186007F19803043B41F22C225B
:104F80000021184616F022FB07F19803043B41F27A
:104F90002C211846FEF7A8FA07F5965207F5367346
:104FA000A3F535700323BA490068FFF7E1FE07F562
:104FB00096531B78303B07F5965202F10F0213709F
:104FC00007F5965207F53673A3F535700323B149FB
:104FD0000068FFF7CDFE07F596531B78303B07F5C9
:104FE000965202F10E02137007F5965207F53673CA
:104FF000A3F535700323A8490068FFF7B9FE07F54C
:1050000096531B78303B07F5965202F10D02137050
:10501000012307F5965202F11002136000F064BC00
:1050200007F11803103B30220021184616F0CEFA83
:1050300007F596520323994907F5965000F114009D
:105040000068FFF795FE07F596531B78303BDAB200
:1050500007F53673A3F53473DA7007F59652032318
:105060008F4907F5965000F114000068FFF780FEA5
:1050700007F596531B78303BDAB207F53673A3F584
:1050800034731A7107F596520323864907F5965033
:1050900000F114000068FFF76BFE07F596531B78CC
:1050A000303B002B14BF01230023DAB207F536731F
:1050B000A3F534735A7107F5965203237A4907F51D
:1050C000965000F114000068FFF752FE07F5965362
:1050D0001B78303B002B14BF01230023DAB207F505
:1050E0003673A3F534739A7107F53673A3F53473E9
:1050F000DB78012B40F0E08007F53673A3F53473BD
:105100001B79012B33D007F17802083A0523674950
:1051100007F5965000F114000068FFF729FE07F12B
:105120009801083907F17803083B1022184616F059
:1051300019F8034607F5965202F10402138007F5A9
:10514000965303F104031B881B0A9BB2DAB207F5DE
:105150003673A3F534735A7307F5965303F10403BA
:105160001B88DAB207F53673A3F534739A7307F127
:10517000780212234E4907F5965000F1140000689A
:10518000FFF7F6FD07F53673A3F5137307F1780201
:105190001A6007F198030C3B4649184616F050FA7E
:1051A00007F19803083B1022194615F0DBFF034670
:1051B000DAB207F53673A3F53473DA7107F19803A1
:1051C0000C3B3C49184616F03BFA07F19803083BA4
:1051D0001022194615F04AFF0346DAB207F5367376
:1051E000A3F534731A7207F198030C3B3149184642
:1051F00016F026FA07F19803083B1022194615F01D
:1052000035FF0346DAB207F53673A3F534735A72E5
:1052100007F198030C3B2749184616F011FA07F1DD
:105220009803083B1022194615F020FF0346DAB216
:1052300007F53673A3F534739A7207F198030C3BA4
:105240001C49184616F0FCF907F19803083B102298
:10525000194615F00BFF0346DAB207F53673A3F5CE
:105260003473DA7207F198030C3B1249184616F0B2
:10527000E7F907F19803083B1022194615F0F6FEEE
:105280000346DAB207F53673A3F534731A7344E2B2
:1052900000DE030808DE030810DE03081CDE030836
:1052A00024DE030830DE030834DE030840DE030892
:1052B00048DE030850DE030807F53673A3F53473A0
:1052C000DB78022B40F0C08007F53673A3F534730A
:1052D0001B79022B5BD007F15802083A1023AD4925
:1052E00007F5965000F114000068FFF741FD07F53F
:1052F0003673A3F5137207F15803083B136007F1E7
:1053000098030C3BA449184616F09AF90346184630
:1053100015F0E8FD0346DAB207F53673A3F53473EA
:105320001A7607F198030C3B9B49184616F088F94A
:105330000346184615F0D6FD0346DAB207F5367374
:10534000A3F534735A7607F198030C3B924918463B
:1053500016F076F90346184615F0C4FD0346DAB296
:1053600007F53673A3F534739A7607F198030C3B6F
:105370008949184616F064F90346184615F0B2FD3F
:105380000346DAB207F53673A3F53473DA7607F11C
:105390007802183A1023814907F5965000F114005D
:1053A0000068FFF7E5FC07F53673A3F5137207F104
:1053B0007803183B136007F198030C3B76491846B5
:1053C00016F03EF90346184615F08CFD0346DAB296
:1053D00007F53673A3F534731A7507F198030C3B80
:1053E0006D49184616F02CF90346184615F07AFD5B
:1053F0000346DAB207F53673A3F534735A7507F12D
:1054000098030C3B6449184616F01AF903461846EF
:1054100015F068FD0346DAB207F53673A3F5347369
:105420009A7507F198030C3B5B49184616F008F98A
:105430000346184615F056FD0346DAB207F53673F3
:10544000A3F53473DA7568E107F53673A3F53473A1
:10545000DB78032B40F0618107F53673A3F53473D5
:105460001B79002B1ED107F158020C3A03234C493B
:1054700007F5965000F114000068FFF779FC07F17A
:105480009801083907F158030C3B1022184615F013
:1054900069FE0346DAB207F53673A3F5347383F871
:1054A0002520D6E007F53673A3F534731B79012B5D
:1054B00006D007F53673A3F534731B79022B75D12B
:1054C00007F15802143A0523364907F5965000F1C2
:1054D00014000068FFF74CFC07F19801083907F148
:1054E0005803143B1022184615F03CFE034607F5FE
:1054F000965202F10602138007F5965303F1060354
:105500001B881B0A9BB2DAB207F53673A3F5347316
:105510001A7707F5965303F106031B88DAB207F5ED
:105520003673A3F534735A7707F15802143A0523FA
:105530001D4907F5965000F114000068FFF718FCAC
:1055400007F19801083907F15803143B1022184657
:1055500015F008FE034607F5965202F10602138085
:1055600007F5965303F106031B881B0A9BB2DAB2B8
:1055700007F53673A3F534739A7707F5965303F15D
:1055800006031B88DAB207F53673A3F53473DA77AE
:105590005FE000BF54DE0308FCDD03085CDE0308A7
:1055A00060DE03086CDE030878DE030807F5367357
:1055B000A3F534731B79032B4BD107F13802092370
:1055C000DF4907F5965000F114000068FFF7D0FBA3
:1055D00007F19803083B07F138001022194615F02F
:1055E000C1FD07F5965303F10803186007F59653BC
:1055F00003F108031B681B0EDAB207F53673A3F537
:10560000347383F8202007F5965303F108031B68D1
:105610001B0CDAB207F53673A3F5347383F8212037
:1056200007F5965303F108031B681B0ADAB207F566
:105630003673A3F5347383F8222007F5965303F1EC
:1056400008031B68DAB207F53673A3F5347383F8E1
:10565000232007F596520323BA4907F5965000F127
:1056600014000068FFF784FB07F596531B78303B66
:10567000DAB207F53673A3F5347383F8242007F5FF
:1056800096520323B04907F5965000F114000068C4
:10569000FFF76EFB07F596531B78303BDAB207F540
:1056A0003673A3F5347383F8262007F59652032347
:1056B000A64907F5965000F114000068FFF758FB63
:1056C00007F19803083B07F596501022194615F08C
:1056D00049FD0346DAB207F53673A3F5347383F850
:1056E000272007F596520323994907F5965000F1B4
:1056F00014000068FFF73CFB07F19803083B07F52F
:1057000096501022194615F02DFD0346DAB207F522
:105710003673A3F5347383F8282007F5965303F105
:1057200010031B68DBB2013BDAB207F53673A3F551
:1057300034731A7007F5965303F110031B68082B96
:1057400023DC07F53673A3F5347300225A7007F58E
:10575000965303F110031B68013B1846FAF7F2FE5B
:1057600002460B4643EC112B9FED730B16F08EFF98
:1057700053EC102B10461946FBF7FEF90346DAB23C
:1057800007F53673A3F534739A7007F5965303F152
:1057900010031B68082B23DD07F5965303F1100354
:1057A0001B68093B1846FAF7CDFE02460B4643EC50
:1057B000112B9FED610B16F069FF53EC102B104677
:1057C0001946FBF7D9F90346DAB207F53673A3F5A4
:1057D00034735A7007F53673A3F5347300229A7048
:1057E00007F53673A3F53473002283F8292007F5F3
:1057F0003673A3F53473002283F82A2007F5367335
:10580000A3F53473002283F82B2007F53673A3F534
:105810003473002283F82C2007F53673A3F5347314
:10582000002283F82D2007F53673A3F534737F2209
:1058300083F82E2007F5965303F10F031B78591EAA
:1058400007F5965303F110031B68013B07F5367209
:10585000A2F511701A4652001A4413011A460B465B
:105860005B000B441B021344C21807F53673A3F503
:10587000347314461D460FCD0FC40FCD0FC495E8E9
:105880000F0084E80F0007F5965303F110031B681F
:10589000DBB2013BDAB207F11803103B07F5965172
:1058A00001F10F0109782B48FCF722FB034607F5AD
:1058B000965202F10C02137007F5965303F103039D
:1058C0001946002015F0C2FE07F5965303F11403A4
:1058D000186007F5965303F110031B68013307F5B1
:1058E000965202F1100213601B4B1B781A4607F503
:1058F000965303F110031B6893427FF791AB07F5B2
:10590000965303F10F031B78013B07F5965202F102
:105910000D02127811491B33DB000B445A6007F566
:10592000965303F10F031B78013B07F5965202F1E2
:105930000E0215E0AFF30080000000000000004000
:1059400084DE030890DE03089CDE0308A8DE03085B
:10595000B4DE030830DA0020F6DD00201CDB002076
:1059600012781949DB000B44C3F8E02007F19803D3
:10597000043B41F22C211846FDF756FD1248FDF775
:1059800049FC07F5965303F10E031B7807F5965271
:1059900002F10D02127807F5965101F10F01097815
:1059A0000A48FCF757FA034607F5965202F10C0233
:1059B000137007F5965303F10C031B78184607F58F
:1059C00096571837BD46B0BD1CDB002030DA0020EA
:1059D00080B5ADF5925D84B000AF07F51473A3F503
:1059E00013731860002307F5925202F10B02137033
:1059F000002307F5925202F10A02137007F1100317
:105A000041F22C220021184615F0E0FD07F11003A9
:105A100041F22C211846FDF767FD07F5925202F17D
:105A2000040207F51473A3F5137003236249006899
:105A3000FFF79EF907F5925303F104031B78303BFF
:105A400007F5925202F10B02137007F5925202F120
:105A5000040207F51473A3F5137003235749006874
:105A6000FFF786F907F5925303F104031B78303BE7
:105A700007F5925202F10A021370002307F59252C1
:105A800002F10C02136039E007F5925303F10C03A5
:105A90001B685A1C07F11003083B4949184615F0CA
:105AA00073FC07F5925202F1040207F11001083964
:105AB00007F51473A3F5137003230068FFF758F973
:105AC00007F5925303F104031B78303BD9B207F575
:105AD000915202F11C0207F5925303F10C031B686B
